{
  "_format": "hh-sol-artifact-1",
  "contractName": "TNFT",
  "sourceName": "contracts/TNFT.sol",
  "abi": [
    {
      "inputs": [],
      "stateMutability": "nonpayable",
      "type": "constructor"
    },
    {
      "anonymous": false,
      "inputs": [
        {
          "indexed": true,
          "internalType": "address",
          "name": "account",
          "type": "address"
        },
        {
          "indexed": true,
          "internalType": "address",
          "name": "operator",
          "type": "address"
        },
        {
          "indexed": false,
          "internalType": "bool",
          "name": "approved",
          "type": "bool"
        }
      ],
      "name": "ApprovalForAll",
      "type": "event"
    },
    {
      "anonymous": false,
      "inputs": [
        {
          "indexed": true,
          "internalType": "address",
          "name": "previousOwner",
          "type": "address"
        },
        {
          "indexed": true,
          "internalType": "address",
          "name": "newOwner",
          "type": "address"
        }
      ],
      "name": "OwnershipTransferred",
      "type": "event"
    },
    {
      "anonymous": false,
      "inputs": [
        {
          "indexed": true,
          "internalType": "address",
          "name": "operator",
          "type": "address"
        },
        {
          "indexed": true,
          "internalType": "address",
          "name": "from",
          "type": "address"
        },
        {
          "indexed": true,
          "internalType": "address",
          "name": "to",
          "type": "address"
        },
        {
          "indexed": false,
          "internalType": "uint256[]",
          "name": "ids",
          "type": "uint256[]"
        },
        {
          "indexed": false,
          "internalType": "uint256[]",
          "name": "values",
          "type": "uint256[]"
        }
      ],
      "name": "TransferBatch",
      "type": "event"
    },
    {
      "anonymous": false,
      "inputs": [
        {
          "indexed": true,
          "internalType": "address",
          "name": "operator",
          "type": "address"
        },
        {
          "indexed": true,
          "internalType": "address",
          "name": "from",
          "type": "address"
        },
        {
          "indexed": true,
          "internalType": "address",
          "name": "to",
          "type": "address"
        },
        {
          "indexed": false,
          "internalType": "uint256",
          "name": "id",
          "type": "uint256"
        },
        {
          "indexed": false,
          "internalType": "uint256",
          "name": "value",
          "type": "uint256"
        }
      ],
      "name": "TransferSingle",
      "type": "event"
    },
    {
      "anonymous": false,
      "inputs": [
        {
          "indexed": false,
          "internalType": "string",
          "name": "value",
          "type": "string"
        },
        {
          "indexed": true,
          "internalType": "uint256",
          "name": "id",
          "type": "uint256"
        }
      ],
      "name": "URI",
      "type": "event"
    },
    {
      "inputs": [],
      "name": "MAX_SUPPLY",
      "outputs": [
        {
          "internalType": "uint256",
          "name": "",
          "type": "uint256"
        }
      ],
      "stateMutability": "view",
      "type": "function"
    },
    {
      "inputs": [
        {
          "internalType": "address",
          "name": "account",
          "type": "address"
        },
        {
          "internalType": "uint256",
          "name": "id",
          "type": "uint256"
        }
      ],
      "name": "balanceOf",
      "outputs": [
        {
          "internalType": "uint256",
          "name": "",
          "type": "uint256"
        }
      ],
      "stateMutability": "view",
      "type": "function"
    },
    {
      "inputs": [
        {
          "internalType": "address[]",
          "name": "accounts",
          "type": "address[]"
        },
        {
          "internalType": "uint256[]",
          "name": "ids",
          "type": "uint256[]"
        }
      ],
      "name": "balanceOfBatch",
      "outputs": [
        {
          "internalType": "uint256[]",
          "name": "",
          "type": "uint256[]"
        }
      ],
      "stateMutability": "view",
      "type": "function"
    },
    {
      "inputs": [],
      "name": "endTime",
      "outputs": [
        {
          "internalType": "uint256",
          "name": "",
          "type": "uint256"
        }
      ],
      "stateMutability": "view",
      "type": "function"
    },
    {
      "inputs": [
        {
          "internalType": "uint256",
          "name": "id",
          "type": "uint256"
        }
      ],
      "name": "exists",
      "outputs": [
        {
          "internalType": "bool",
          "name": "",
          "type": "bool"
        }
      ],
      "stateMutability": "view",
      "type": "function"
    },
    {
      "inputs": [
        {
          "internalType": "address",
          "name": "",
          "type": "address"
        }
      ],
      "name": "hasMinted",
      "outputs": [
        {
          "internalType": "bool",
          "name": "",
          "type": "bool"
        }
      ],
      "stateMutability": "view",
      "type": "function"
    },
    {
      "inputs": [
        {
          "internalType": "address",
          "name": "account",
          "type": "address"
        },
        {
          "internalType": "address",
          "name": "operator",
          "type": "address"
        }
      ],
      "name": "isApprovedForAll",
      "outputs": [
        {
          "internalType": "bool",
          "name": "",
          "type": "bool"
        }
      ],
      "stateMutability": "view",
      "type": "function"
    },
    {
      "inputs": [],
      "name": "merkleRoot",
      "outputs": [
        {
          "internalType": "bytes32",
          "name": "",
          "type": "bytes32"
        }
      ],
      "stateMutability": "view",
      "type": "function"
    },
    {
      "inputs": [
        {
          "internalType": "bytes32[]",
          "name": "merkleProof",
          "type": "bytes32[]"
        }
      ],
      "name": "mint",
      "outputs": [],
      "stateMutability": "payable",
      "type": "function"
    },
    {
      "inputs": [],
      "name": "mintPrice",
      "outputs": [
        {
          "internalType": "uint256",
          "name": "",
          "type": "uint256"
        }
      ],
      "stateMutability": "view",
      "type": "function"
    },
    {
      "inputs": [],
      "name": "name",
      "outputs": [
        {
          "internalType": "string",
          "name": "",
          "type": "string"
        }
      ],
      "stateMutability": "view",
      "type": "function"
    },
    {
      "inputs": [],
      "name": "nextTokenId",
      "outputs": [
        {
          "internalType": "uint256",
          "name": "",
          "type": "uint256"
        }
      ],
      "stateMutability": "view",
      "type": "function"
    },
    {
      "inputs": [],
      "name": "owner",
      "outputs": [
        {
          "internalType": "address",
          "name": "",
          "type": "address"
        }
      ],
      "stateMutability": "view",
      "type": "function"
    },
    {
      "inputs": [
        {
          "internalType": "address",
          "name": "from",
          "type": "address"
        },
        {
          "internalType": "address",
          "name": "to",
          "type": "address"
        },
        {
          "internalType": "uint256[]",
          "name": "ids",
          "type": "uint256[]"
        },
        {
          "internalType": "uint256[]",
          "name": "values",
          "type": "uint256[]"
        },
        {
          "internalType": "bytes",
          "name": "data",
          "type": "bytes"
        }
      ],
      "name": "safeBatchTransferFrom",
      "outputs": [],
      "stateMutability": "nonpayable",
      "type": "function"
    },
    {
      "inputs": [
        {
          "internalType": "address",
          "name": "from",
          "type": "address"
        },
        {
          "internalType": "address",
          "name": "to",
          "type": "address"
        },
        {
          "internalType": "uint256",
          "name": "id",
          "type": "uint256"
        },
        {
          "internalType": "uint256",
          "name": "value",
          "type": "uint256"
        },
        {
          "internalType": "bytes",
          "name": "data",
          "type": "bytes"
        }
      ],
      "name": "safeTransferFrom",
      "outputs": [],
      "stateMutability": "nonpayable",
      "type": "function"
    },
    {
      "inputs": [
        {
          "internalType": "address",
          "name": "operator",
          "type": "address"
        },
        {
          "internalType": "bool",
          "name": "approved",
          "type": "bool"
        }
      ],
      "name": "setApprovalForAll",
      "outputs": [],
      "stateMutability": "nonpayable",
      "type": "function"
    },
    {
      "inputs": [
        {
          "internalType": "bytes32",
          "name": "newMerkleRoot",
          "type": "bytes32"
        }
      ],
      "name": "setMerkleRoot",
      "outputs": [],
      "stateMutability": "nonpayable",
      "type": "function"
    },
    {
      "inputs": [
        {
          "internalType": "uint256",
          "name": "newPrice",
          "type": "uint256"
        }
      ],
      "name": "setMintPrice",
      "outputs": [],
      "stateMutability": "nonpayable",
      "type": "function"
    },
    {
      "inputs": [
        {
          "internalType": "uint256",
          "name": "newStartTime",
          "type": "uint256"
        },
        {
          "internalType": "uint256",
          "name": "newEndTime",
          "type": "uint256"
        }
      ],
      "name": "setMintingWindow",
      "outputs": [],
      "stateMutability": "nonpayable",
      "type": "function"
    },
    {
      "inputs": [
        {
          "internalType": "string",
          "name": "newuri",
          "type": "string"
        }
      ],
      "name": "setURI",
      "outputs": [],
      "stateMutability": "nonpayable",
      "type": "function"
    },
    {
      "inputs": [],
      "name": "startTime",
      "outputs": [
        {
          "internalType": "uint256",
          "name": "",
          "type": "uint256"
        }
      ],
      "stateMutability": "view",
      "type": "function"
    },
    {
      "inputs": [
        {
          "internalType": "bytes4",
          "name": "interfaceId",
          "type": "bytes4"
        }
      ],
      "name": "supportsInterface",
      "outputs": [
        {
          "internalType": "bool",
          "name": "",
          "type": "bool"
        }
      ],
      "stateMutability": "view",
      "type": "function"
    },
    {
      "inputs": [],
      "name": "symbol",
      "outputs": [
        {
          "internalType": "string",
          "name": "",
          "type": "string"
        }
      ],
      "stateMutability": "view",
      "type": "function"
    },
    {
      "inputs": [
        {
          "internalType": "uint256",
          "name": "id",
          "type": "uint256"
        }
      ],
      "name": "totalSupply",
      "outputs": [
        {
          "internalType": "uint256",
          "name": "",
          "type": "uint256"
        }
      ],
      "stateMutability": "view",
      "type": "function"
    },
    {
      "inputs": [
        {
          "internalType": "address",
          "name": "newOwner",
          "type": "address"
        }
      ],
      "name": "transferOwnership",
      "outputs": [],
      "stateMutability": "nonpayable",
      "type": "function"
    },
    {
      "inputs": [
        {
          "internalType": "uint256",
          "name": "",
          "type": "uint256"
        }
      ],
      "name": "uri",
      "outputs": [
        {
          "internalType": "string",
          "name": "",
          "type": "string"
        }
      ],
      "stateMutability": "view",
      "type": "function"
    },
    {
      "inputs": [],
      "name": "withdraw",
      "outputs": [],
      "stateMutability": "nonpayable",
      "type": "function"
    }
  ],
  "bytecode": "0x608060405266038d7ea4c6800060075560016008553480156200002157600080fd5b50604051806040016040528060048152602001631513919560e21b815250604051806040016040528060048152602001631513919560e21b8152506040518060400160405280601a81526020017f68747470733a2f2f6170692e697066732e6d657461646174612f0000000000008152508260009081620000a39190620001ee565b506001620000b28382620001ee565b50620000be81620000e1565b505050620000db620000d5620000f360201b60201c565b620000f7565b620002ba565b6002620000ef8282620001ee565b5050565b3390565b600680546001600160a01b038381166001600160a01b0319831681179093556040519116919082907f8be0079c531659141344cd1fd0a4f28419497f9722a3daafe3b4186f6b6457e090600090a35050565b634e487b7160e01b600052604160045260246000fd5b600181811c908216806200017457607f821691505b6020821081036200019557634e487b7160e01b600052602260045260246000fd5b50919050565b601f821115620001e957600081815260208120601f850160051c81016020861015620001c45750805b601f850160051c820191505b81811015620001e557828155600101620001d0565b5050505b505050565b81516001600160401b038111156200020a576200020a62000149565b62000222816200021b84546200015f565b846200019b565b602080601f8311600181146200025a5760008415620002415750858301515b600019600386901b1c1916600185901b178555620001e5565b600085815260208120601f198616915b828110156200028b578886015182559484019460019091019084016200026a565b5085821015620002aa5787850151600019600388901b60f8161c191681555b5050505050600190811b01905550565b61187680620002ca6000396000f3fe60806040526004361061019b5760003560e01c80636817c76c116100ec578063b77a147b1161008a578063e985e9c511610064578063e985e9c514610489578063f242432a146104d2578063f2fde38b146104ed578063f4a0a5281461050d57600080fd5b8063b77a147b14610429578063bd85b0391461043c578063c5e951751461046957600080fd5b80637cb64759116100c65780637cb64759146103ac5780638da5cb5b146103cc57806395d89b41146103f4578063a22cb4651461040957600080fd5b80636817c76c1461036a57806375794a3c1461038057806378e979251461039657600080fd5b80632eb4a7ab1161015957806338e21cce1161013357806338e21cce146102c95780633ccfd60b146102f95780634e1273f41461030e5780634f558e791461033b57600080fd5b80632eb4a7ab146102875780633197cbb61461029d57806332cb6b0c146102b357600080fd5b8062fdd58e146101a057806301ffc9a7146101d357806302fe53051461020357806306fdde03146102255780630e89341c146102475780632eb2c2d614610267575b600080fd5b3480156101ac57600080fd5b506101c06101bb36600461109f565b61052d565b6040519081526020015b60405180910390f35b3480156101df57600080fd5b506101f36101ee3660046110df565b610557565b60405190151581526020016101ca565b34801561020f57600080fd5b5061022361021e36600461119b565b6105a7565b005b34801561023157600080fd5b5061023a6105bb565b6040516101ca9190611232565b34801561025357600080fd5b5061023a610262366004611245565b610649565b34801561027357600080fd5b5061022361028236600461130d565b6106dd565b34801561029357600080fd5b506101c060095481565b3480156102a957600080fd5b506101c0600c5481565b3480156102bf57600080fd5b506101c061138881565b3480156102d557600080fd5b506101f36102e43660046113b7565b600a6020526000908152604090205460ff1681565b34801561030557600080fd5b50610223610734565b34801561031a57600080fd5b5061032e6103293660046113d2565b610775565b6040516101ca9190611492565b34801561034757600080fd5b506101f3610356366004611245565b600090815260056020526040902054151590565b34801561037657600080fd5b506101c060075481565b34801561038c57600080fd5b506101c060085481565b3480156103a257600080fd5b506101c0600b5481565b3480156103b857600080fd5b506102236103c7366004611245565b61089f565b3480156103d857600080fd5b506006546040516001600160a01b0390911681526020016101ca565b34801561040057600080fd5b5061023a6108ac565b34801561041557600080fd5b506102236104243660046114d6565b6108b9565b610223610437366004611512565b6108c8565b34801561044857600080fd5b506101c0610457366004611245565b60009081526005602052604090205490565b34801561047557600080fd5b50610223610484366004611587565b610b07565b34801561049557600080fd5b506101f36104a43660046115a9565b6001600160a01b03918216600090815260046020908152604080832093909416825291909152205460ff1690565b3480156104de57600080fd5b506102236102823660046115dc565b3480156104f957600080fd5b506102236105083660046113b7565b610b5e565b34801561051957600080fd5b50610223610528366004611245565b610bd4565b60008181526003602090815260408083206001600160a01b03861684529091529020545b92915050565b60006001600160e01b03198216636cdb3d1360e11b148061058857506001600160e01b031982166303a24d0760e21b145b8061055157506301ffc9a760e01b6001600160e01b0319831614610551565b6105af610be1565b6105b881610c3d565b50565b600080546105c890611641565b80601f01602080910402602001604051908101604052809291908181526020018280546105f490611641565b80156106415780601f1061061657610100808354040283529160200191610641565b820191906000526020600020905b81548152906001019060200180831161062457829003601f168201915b505050505081565b60606002805461065890611641565b80601f016020809104026020016040519081016040528092919081815260200182805461068490611641565b80156106d15780601f106106a6576101008083540402835291602001916106d1565b820191906000526020600020905b8154815290600101906020018083116106b457829003601f168201915b50505050509050919050565b60405162461bcd60e51b815260206004820152602160248201527f536f756c626f756e643a205472616e7366657273206172652064697361626c656044820152601960fa1b60648201526084015b60405180910390fd5b61073c610be1565b6006546040516001600160a01b03909116904780156108fc02916000818181858888f193505050501580156105b8573d6000803e3d6000fd5b606081518351146107da5760405162461bcd60e51b815260206004820152602960248201527f455243313135353a206163636f756e747320616e6420696473206c656e677468604482015268040dad2e6dac2e8c6d60bb1b606482015260840161072b565b6000835167ffffffffffffffff8111156107f6576107f66110fc565b60405190808252806020026020018201604052801561081f578160200160208202803683370190505b50905060005b84518110156108975761086a8582815181106108435761084361167b565b602002602001015185838151811061085d5761085d61167b565b602002602001015161052d565b82828151811061087c5761087c61167b565b6020908102919091010152610890816116a7565b9050610825565b509392505050565b6108a7610be1565b600955565b600180546105c890611641565b6108c4338383610c49565b5050565b600b5442101580156108dc5750600c544211155b61091d5760405162461bcd60e51b81526020600482015260126024820152714d696e74696e67206e6f742061637469766560701b604482015260640161072b565b60075434146109635760405162461bcd60e51b8152602060048201526012602482015271125b98dbdc9c9958dd08115512081cd95b9d60721b604482015260640161072b565b336000908152600a602052604090205460ff16156109b45760405162461bcd60e51b815260206004820152600e60248201526d105b1c9958591e481b5a5b9d195960921b604482015260640161072b565b61138860085411156109fd5760405162461bcd60e51b815260206004820152601260248201527145786365656473206d617820737570706c7960701b604482015260640161072b565b6040516bffffffffffffffffffffffff193360601b166020820152600090603401604051602081830303815290604052805190602001209050610a77838380806020026020016040519081016040528093929190818152602001838360200280828437600092019190915250506009549150849050610d29565b610ab55760405162461bcd60e51b815260206004820152600f60248201526e139bdd081dda1a5d195b1a5cdd1959608a1b604482015260640161072b565b610ad333600854600160405180602001604052806000815250610d3f565b60088054906000610ae3836116a7565b9091555050336000908152600a60205260409020805460ff19166001179055505050565b610b0f610be1565b808210610b535760405162461bcd60e51b8152602060048201526012602482015271496e76616c69642074696d652072616e676560701b604482015260640161072b565b600b91909155600c55565b610b66610be1565b6001600160a01b038116610bcb5760405162461bcd60e51b815260206004820152602660248201527f4f776e61626c653a206e6577206f776e657220697320746865207a65726f206160448201526564647265737360d01b606482015260840161072b565b6105b881610e57565b610bdc610be1565b600755565b6006546001600160a01b03163314610c3b5760405162461bcd60e51b815260206004820181905260248201527f4f776e61626c653a2063616c6c6572206973206e6f7420746865206f776e6572604482015260640161072b565b565b60026108c4828261170b565b816001600160a01b0316836001600160a01b031603610cbc5760405162461bcd60e51b815260206004820152602960248201527f455243313135353a2073657474696e6720617070726f76616c20737461747573604482015268103337b91039b2b63360b91b606482015260840161072b565b6001600160a01b03838116600081815260046020908152604080832094871680845294825291829020805460ff191686151590811790915591519182527f17307eab39ab6107e8899845ad3d59bd9653f200f220920489ca2b5937696c31910160405180910390a3505050565b600082610d368584610ea9565b14949350505050565b6001600160a01b038416610d9f5760405162461bcd60e51b815260206004820152602160248201527f455243313135353a206d696e7420746f20746865207a65726f206164647265736044820152607360f81b606482015260840161072b565b60008381526003602090815260408083206001600160a01b038816845290915281208054849290610dd19084906117cb565b909155505060008381526005602052604081208054849290610df49084906117cb565b909155505060408051848152602081018490526001600160a01b0386169160009133917fc3d58168c5ae7397731d063d5bbf3d657854427343f4c083240f7aacaa2d0f62910160405180910390a4610e5133600086868686610eee565b50505050565b600680546001600160a01b038381166001600160a01b0319831681179093556040519116919082907f8be0079c531659141344cd1fd0a4f28419497f9722a3daafe3b4186f6b6457e090600090a35050565b600081815b845181101561089757610eda82868381518110610ecd57610ecd61167b565b6020026020010151611051565b915080610ee6816116a7565b915050610eae565b6001600160a01b0384163b156110495760405163f23a6e6160e01b81526001600160a01b0385169063f23a6e6190610f3290899089908890889088906004016117de565b6020604051808303816000875af1925050508015610f6d575060408051601f3d908101601f19168201909252610f6a91810190611823565b60015b610fd65760405162461bcd60e51b815260206004820152603460248201527f455243313135353a207472616e7366657220746f206e6f6e20455243313135356044820152732932b1b2b4bb32b91034b6b83632b6b2b73a32b960611b606482015260840161072b565b6001600160e01b0319811663f23a6e6160e01b146110475760405162461bcd60e51b815260206004820152602860248201527f455243313135353a204552433131353552656365697665722072656a656374656044820152676420746f6b656e7360c01b606482015260840161072b565b505b505050505050565b600081831061106d57600082815260208490526040902061107c565b60008381526020839052604090205b9392505050565b80356001600160a01b038116811461109a57600080fd5b919050565b600080604083850312156110b257600080fd5b6110bb83611083565b946020939093013593505050565b6001600160e01b0319811681146105b857600080fd5b6000602082840312156110f157600080fd5b813561107c816110c9565b634e487b7160e01b600052604160045260246000fd5b604051601f8201601f1916810167ffffffffffffffff8111828210171561113b5761113b6110fc565b604052919050565b600067ffffffffffffffff83111561115d5761115d6110fc565b611170601f8401601f1916602001611112565b905082815283838301111561118457600080fd5b828260208301376000602084830101529392505050565b6000602082840312156111ad57600080fd5b813567ffffffffffffffff8111156111c457600080fd5b8201601f810184136111d557600080fd5b6111e484823560208401611143565b949350505050565b6000815180845260005b81811015611212576020818501810151868301820152016111f6565b506000602082860101526020601f19601f83011685010191505092915050565b60208152600061107c60208301846111ec565b60006020828403121561125757600080fd5b5035919050565b600067ffffffffffffffff821115611278576112786110fc565b5060051b60200190565b600082601f83011261129357600080fd5b813560206112a86112a38361125e565b611112565b82815260059290921b840181019181810190868411156112c757600080fd5b8286015b848110156112e257803583529183019183016112cb565b509695505050505050565b600082601f8301126112fe57600080fd5b61107c83833560208501611143565b600080600080600060a0868803121561132557600080fd5b61132e86611083565b945061133c60208701611083565b9350604086013567ffffffffffffffff8082111561135957600080fd5b61136589838a01611282565b9450606088013591508082111561137b57600080fd5b61138789838a01611282565b9350608088013591508082111561139d57600080fd5b506113aa888289016112ed565b9150509295509295909350565b6000602082840312156113c957600080fd5b61107c82611083565b600080604083850312156113e557600080fd5b823567ffffffffffffffff808211156113fd57600080fd5b818501915085601f83011261141157600080fd5b813560206114216112a38361125e565b82815260059290921b8401810191818101908984111561144057600080fd5b948201945b838610156114655761145686611083565b82529482019490820190611445565b9650508601359250508082111561147b57600080fd5b5061148885828601611282565b9150509250929050565b6020808252825182820181905260009190848201906040850190845b818110156114ca578351835292840192918401916001016114ae565b50909695505050505050565b600080604083850312156114e957600080fd5b6114f283611083565b91506020830135801515811461150757600080fd5b809150509250929050565b6000806020838503121561152557600080fd5b823567ffffffffffffffff8082111561153d57600080fd5b818501915085601f83011261155157600080fd5b81358181111561156057600080fd5b8660208260051b850101111561157557600080fd5b60209290920196919550909350505050565b6000806040838503121561159a57600080fd5b50508035926020909101359150565b600080604083850312156115bc57600080fd5b6115c583611083565b91506115d360208401611083565b90509250929050565b600080600080600060a086880312156115f457600080fd5b6115fd86611083565b945061160b60208701611083565b93506040860135925060608601359150608086013567ffffffffffffffff81111561163557600080fd5b6113aa888289016112ed565b600181811c9082168061165557607f821691505b60208210810361167557634e487b7160e01b600052602260045260246000fd5b50919050565b634e487b7160e01b600052603260045260246000fd5b634e487b7160e01b600052601160045260246000fd5b6000600182016116b9576116b9611691565b5060010190565b601f82111561170657600081815260208120601f850160051c810160208610156116e75750805b601f850160051c820191505b81811015611049578281556001016116f3565b505050565b815167ffffffffffffffff811115611725576117256110fc565b611739816117338454611641565b846116c0565b602080601f83116001811461176e57600084156117565750858301515b600019600386901b1c1916600185901b178555611049565b600085815260208120601f198616915b8281101561179d5788860151825594840194600190910190840161177e565b50858210156117bb5787850151600019600388901b60f8161c191681555b5050505050600190811b01905550565b8082018082111561055157610551611691565b6001600160a01b03868116825285166020820152604081018490526060810183905260a060808201819052600090611818908301846111ec565b979650505050505050565b60006020828403121561183557600080fd5b815161107c816110c956fea264697066735822122000c4868d062e0d9287d49afade9e4fb9c780d80dbde861ba1faff2badd505be564736f6c63430008110033",
  "linkReferences": {},
  "deployedLinkReferences": {}
}