{
  "_format": "hh-sol-artifact-1",
  "contractName": "ERC1155",
  "sourceName": "contracts/Utils.sol",
  "abi": [
    {
      "inputs": [
        {
          "internalType": "string",
          "name": "_name",
          "type": "string"
        },
        {
          "internalType": "string",
          "name": "_symbol",
          "type": "string"
        },
        {
          "internalType": "string",
          "name": "uri_",
          "type": "string"
        }
      ],
      "stateMutability": "nonpayable",
      "type": "constructor"
    },
    {
      "anonymous": false,
      "inputs": [
        {
          "indexed": true,
          "internalType": "address",
          "name": "account",
          "type": "address"
        },
        {
          "indexed": true,
          "internalType": "address",
          "name": "operator",
          "type": "address"
        },
        {
          "indexed": false,
          "internalType": "bool",
          "name": "approved",
          "type": "bool"
        }
      ],
      "name": "ApprovalForAll",
      "type": "event"
    },
    {
      "anonymous": false,
      "inputs": [
        {
          "indexed": true,
          "internalType": "address",
          "name": "operator",
          "type": "address"
        },
        {
          "indexed": true,
          "internalType": "address",
          "name": "from",
          "type": "address"
        },
        {
          "indexed": true,
          "internalType": "address",
          "name": "to",
          "type": "address"
        },
        {
          "indexed": false,
          "internalType": "uint256[]",
          "name": "ids",
          "type": "uint256[]"
        },
        {
          "indexed": false,
          "internalType": "uint256[]",
          "name": "values",
          "type": "uint256[]"
        }
      ],
      "name": "TransferBatch",
      "type": "event"
    },
    {
      "anonymous": false,
      "inputs": [
        {
          "indexed": true,
          "internalType": "address",
          "name": "operator",
          "type": "address"
        },
        {
          "indexed": true,
          "internalType": "address",
          "name": "from",
          "type": "address"
        },
        {
          "indexed": true,
          "internalType": "address",
          "name": "to",
          "type": "address"
        },
        {
          "indexed": false,
          "internalType": "uint256",
          "name": "id",
          "type": "uint256"
        },
        {
          "indexed": false,
          "internalType": "uint256",
          "name": "value",
          "type": "uint256"
        }
      ],
      "name": "TransferSingle",
      "type": "event"
    },
    {
      "anonymous": false,
      "inputs": [
        {
          "indexed": false,
          "internalType": "string",
          "name": "value",
          "type": "string"
        },
        {
          "indexed": true,
          "internalType": "uint256",
          "name": "id",
          "type": "uint256"
        }
      ],
      "name": "URI",
      "type": "event"
    },
    {
      "inputs": [
        {
          "internalType": "address",
          "name": "account",
          "type": "address"
        },
        {
          "internalType": "uint256",
          "name": "id",
          "type": "uint256"
        }
      ],
      "name": "balanceOf",
      "outputs": [
        {
          "internalType": "uint256",
          "name": "",
          "type": "uint256"
        }
      ],
      "stateMutability": "view",
      "type": "function"
    },
    {
      "inputs": [
        {
          "internalType": "address[]",
          "name": "accounts",
          "type": "address[]"
        },
        {
          "internalType": "uint256[]",
          "name": "ids",
          "type": "uint256[]"
        }
      ],
      "name": "balanceOfBatch",
      "outputs": [
        {
          "internalType": "uint256[]",
          "name": "",
          "type": "uint256[]"
        }
      ],
      "stateMutability": "view",
      "type": "function"
    },
    {
      "inputs": [
        {
          "internalType": "uint256",
          "name": "id",
          "type": "uint256"
        }
      ],
      "name": "exists",
      "outputs": [
        {
          "internalType": "bool",
          "name": "",
          "type": "bool"
        }
      ],
      "stateMutability": "view",
      "type": "function"
    },
    {
      "inputs": [
        {
          "internalType": "address",
          "name": "account",
          "type": "address"
        },
        {
          "internalType": "address",
          "name": "operator",
          "type": "address"
        }
      ],
      "name": "isApprovedForAll",
      "outputs": [
        {
          "internalType": "bool",
          "name": "",
          "type": "bool"
        }
      ],
      "stateMutability": "view",
      "type": "function"
    },
    {
      "inputs": [],
      "name": "name",
      "outputs": [
        {
          "internalType": "string",
          "name": "",
          "type": "string"
        }
      ],
      "stateMutability": "view",
      "type": "function"
    },
    {
      "inputs": [
        {
          "internalType": "address",
          "name": "from",
          "type": "address"
        },
        {
          "internalType": "address",
          "name": "to",
          "type": "address"
        },
        {
          "internalType": "uint256[]",
          "name": "ids",
          "type": "uint256[]"
        },
        {
          "internalType": "uint256[]",
          "name": "values",
          "type": "uint256[]"
        },
        {
          "internalType": "bytes",
          "name": "data",
          "type": "bytes"
        }
      ],
      "name": "safeBatchTransferFrom",
      "outputs": [],
      "stateMutability": "nonpayable",
      "type": "function"
    },
    {
      "inputs": [
        {
          "internalType": "address",
          "name": "from",
          "type": "address"
        },
        {
          "internalType": "address",
          "name": "to",
          "type": "address"
        },
        {
          "internalType": "uint256",
          "name": "id",
          "type": "uint256"
        },
        {
          "internalType": "uint256",
          "name": "value",
          "type": "uint256"
        },
        {
          "internalType": "bytes",
          "name": "data",
          "type": "bytes"
        }
      ],
      "name": "safeTransferFrom",
      "outputs": [],
      "stateMutability": "nonpayable",
      "type": "function"
    },
    {
      "inputs": [
        {
          "internalType": "address",
          "name": "operator",
          "type": "address"
        },
        {
          "internalType": "bool",
          "name": "approved",
          "type": "bool"
        }
      ],
      "name": "setApprovalForAll",
      "outputs": [],
      "stateMutability": "nonpayable",
      "type": "function"
    },
    {
      "inputs": [
        {
          "internalType": "bytes4",
          "name": "interfaceId",
          "type": "bytes4"
        }
      ],
      "name": "supportsInterface",
      "outputs": [
        {
          "internalType": "bool",
          "name": "",
          "type": "bool"
        }
      ],
      "stateMutability": "view",
      "type": "function"
    },
    {
      "inputs": [],
      "name": "symbol",
      "outputs": [
        {
          "internalType": "string",
          "name": "",
          "type": "string"
        }
      ],
      "stateMutability": "view",
      "type": "function"
    },
    {
      "inputs": [
        {
          "internalType": "uint256",
          "name": "id",
          "type": "uint256"
        }
      ],
      "name": "totalSupply",
      "outputs": [
        {
          "internalType": "uint256",
          "name": "",
          "type": "uint256"
        }
      ],
      "stateMutability": "view",
      "type": "function"
    },
    {
      "inputs": [
        {
          "internalType": "uint256",
          "name": "",
          "type": "uint256"
        }
      ],
      "name": "uri",
      "outputs": [
        {
          "internalType": "string",
          "name": "",
          "type": "string"
        }
      ],
      "stateMutability": "view",
      "type": "function"
    }
  ],
  "bytecode": "0x60806040523480156200001157600080fd5b5060405162000ec638038062000ec683398101604081905262000034916200013d565b60006200004284826200025d565b5060016200005183826200025d565b506200005d8162000066565b50505062000329565b60026200007482826200025d565b5050565b634e487b7160e01b600052604160045260246000fd5b600082601f830112620000a057600080fd5b81516001600160401b0380821115620000bd57620000bd62000078565b604051601f8301601f19908116603f01168101908282118183101715620000e857620000e862000078565b816040528381526020925086838588010111156200010557600080fd5b600091505b838210156200012957858201830151818301840152908201906200010a565b600093810190920192909252949350505050565b6000806000606084860312156200015357600080fd5b83516001600160401b03808211156200016b57600080fd5b62000179878388016200008e565b945060208601519150808211156200019057600080fd5b6200019e878388016200008e565b93506040860151915080821115620001b557600080fd5b50620001c4868287016200008e565b9150509250925092565b600181811c90821680620001e357607f821691505b6020821081036200020457634e487b7160e01b600052602260045260246000fd5b50919050565b601f8211156200025857600081815260208120601f850160051c81016020861015620002335750805b601f850160051c820191505b8181101562000254578281556001016200023f565b5050505b505050565b81516001600160401b0381111562000279576200027962000078565b62000291816200028a8454620001ce565b846200020a565b602080601f831160018114620002c95760008415620002b05750858301515b600019600386901b1c1916600185901b17855562000254565b600085815260208120601f198616915b82811015620002fa57888601518255948401946001909101908401620002d9565b5085821015620003195787850151600019600388901b60f8161c191681555b5050505050600190811b01905550565b610b8d80620003396000396000f3fe608060405234801561001057600080fd5b50600436106100b35760003560e01c80634f558e79116100715780634f558e791461018057806395d89b41146101a2578063a22cb465146101aa578063bd85b039146101bd578063e985e9c5146101dd578063f242432a1461021957600080fd5b8062fdd58e146100b857806301ffc9a71461010057806306fdde03146101235780630e89341c146101385780632eb2c2d61461014b5780634e1273f414610160575b600080fd5b6100ed6100c6366004610656565b60009081526003602090815260408083206001600160a01b03949094168352929052205490565b6040519081526020015b60405180910390f35b61011361010e366004610680565b610227565b60405190151581526020016100f7565b61012b610279565b6040516100f791906106b1565b61012b6101463660046106ff565b610307565b61015e61015936600461085e565b61039b565b005b61017361016e366004610908565b6103f2565b6040516100f791906109c8565b61011361018e3660046106ff565b600090815260056020526040902054151590565b61012b61053e565b61015e6101b8366004610a0c565b61054b565b6100ed6101cb3660046106ff565b60009081526005602052604090205490565b6101136101eb366004610a48565b6001600160a01b03918216600090815260046020908152604080832093909416825291909152205460ff1690565b61015e610159366004610a7b565b60006001600160e01b03198216636cdb3d1360e11b148061025857506001600160e01b031982166303a24d0760e21b145b8061027357506301ffc9a760e01b6001600160e01b03198316145b92915050565b6000805461028690610ae0565b80601f01602080910402602001604051908101604052809291908181526020018280546102b290610ae0565b80156102ff5780601f106102d4576101008083540402835291602001916102ff565b820191906000526020600020905b8154815290600101906020018083116102e257829003601f168201915b505050505081565b60606002805461031690610ae0565b80601f016020809104026020016040519081016040528092919081815260200182805461034290610ae0565b801561038f5780601f106103645761010080835404028352916020019161038f565b820191906000526020600020905b81548152906001019060200180831161037257829003601f168201915b50505050509050919050565b60405162461bcd60e51b815260206004820152602160248201527f536f756c626f756e643a205472616e7366657273206172652064697361626c656044820152601960fa1b60648201526084015b60405180910390fd5b606081518351146104575760405162461bcd60e51b815260206004820152602960248201527f455243313135353a206163636f756e747320616e6420696473206c656e677468604482015268040dad2e6dac2e8c6d60bb1b60648201526084016103e9565b6000835167ffffffffffffffff81111561047357610473610718565b60405190808252806020026020018201604052801561049c578160200160208202803683370190505b50905060005b8451811015610536576105098582815181106104c0576104c0610b1a565b60200260200101518583815181106104da576104da610b1a565b602002602001015160009081526003602090815260408083206001600160a01b03949094168352929052205490565b82828151811061051b5761051b610b1a565b602090810291909101015261052f81610b30565b90506104a2565b509392505050565b6001805461028690610ae0565b61055633838361055a565b5050565b816001600160a01b0316836001600160a01b0316036105cd5760405162461bcd60e51b815260206004820152602960248201527f455243313135353a2073657474696e6720617070726f76616c20737461747573604482015268103337b91039b2b63360b91b60648201526084016103e9565b6001600160a01b03838116600081815260046020908152604080832094871680845294825291829020805460ff191686151590811790915591519182527f17307eab39ab6107e8899845ad3d59bd9653f200f220920489ca2b5937696c31910160405180910390a3505050565b80356001600160a01b038116811461065157600080fd5b919050565b6000806040838503121561066957600080fd5b6106728361063a565b946020939093013593505050565b60006020828403121561069257600080fd5b81356001600160e01b0319811681146106aa57600080fd5b9392505050565b600060208083528351808285015260005b818110156106de578581018301518582016040015282016106c2565b506000604082860101526040601f19601f8301168501019250505092915050565b60006020828403121561071157600080fd5b5035919050565b634e487b7160e01b600052604160045260246000fd5b604051601f8201601f1916810167ffffffffffffffff8111828210171561075757610757610718565b604052919050565b600067ffffffffffffffff82111561077957610779610718565b5060051b60200190565b600082601f83011261079457600080fd5b813560206107a96107a48361075f565b61072e565b82815260059290921b840181019181810190868411156107c857600080fd5b8286015b848110156107e357803583529183019183016107cc565b509695505050505050565b600082601f8301126107ff57600080fd5b813567ffffffffffffffff81111561081957610819610718565b61082c601f8201601f191660200161072e565b81815284602083860101111561084157600080fd5b816020850160208301376000918101602001919091529392505050565b600080600080600060a0868803121561087657600080fd5b61087f8661063a565b945061088d6020870161063a565b9350604086013567ffffffffffffffff808211156108aa57600080fd5b6108b689838a01610783565b945060608801359150808211156108cc57600080fd5b6108d889838a01610783565b935060808801359150808211156108ee57600080fd5b506108fb888289016107ee565b9150509295509295909350565b6000806040838503121561091b57600080fd5b823567ffffffffffffffff8082111561093357600080fd5b818501915085601f83011261094757600080fd5b813560206109576107a48361075f565b82815260059290921b8401810191818101908984111561097657600080fd5b948201945b8386101561099b5761098c8661063a565b8252948201949082019061097b565b965050860135925050808211156109b157600080fd5b506109be85828601610783565b9150509250929050565b6020808252825182820181905260009190848201906040850190845b81811015610a00578351835292840192918401916001016109e4565b50909695505050505050565b60008060408385031215610a1f57600080fd5b610a288361063a565b915060208301358015158114610a3d57600080fd5b809150509250929050565b60008060408385031215610a5b57600080fd5b610a648361063a565b9150610a726020840161063a565b90509250929050565b600080600080600060a08688031215610a9357600080fd5b610a9c8661063a565b9450610aaa6020870161063a565b93506040860135925060608601359150608086013567ffffffffffffffff811115610ad457600080fd5b6108fb888289016107ee565b600181811c90821680610af457607f821691505b602082108103610b1457634e487b7160e01b600052602260045260246000fd5b50919050565b634e487b7160e01b600052603260045260246000fd5b600060018201610b5057634e487b7160e01b600052601160045260246000fd5b506001019056fea26469706673582212200949031c0e4d07188b8df49c06dfe33d71dab6188c500697cacd2d9d38c1a43464736f6c63430008110033",
  "linkReferences": {},
  "deployedLinkReferences": {}
}